:100000000C9462000C948A000C948A000C948A0070
:100010000C948A000C948A000C948A000C948A0038
:100020000C948A000C948A000C948A000C948A0028
:100030000C948A000C948A000C948A000C948A0018
:100040000C9405060C948A000C94C8070C941608AE
:100050000C948A000C948A000C948A000C948A00F8
:100060000C948A000C948A000000000024002700F1
:100070002A0000000000250028002B0000000000DE
:1000800023002600290004040404040404040202DA
:100090000202020203030303030301020408102007
:1000A0004080010204081020010204081020000012
:1000B0000007000201000003040600000000000029
:1000C0000000820911241FBECFEFD8E0DEBFCDBFF4
:1000D00011E0A0E0B1E0E4E2F5E102C005900D928C
:1000E000A036B107D9F712E0A0E6B1E001C01D9239
:1000F000AD3AB107E1F710E0C4ECD0E004C02297BC
:10010000FE010E94810AC23CD107C9F70E94D809AA
:100110000C94900A0C9400002F923F925F926F9281
:100120007F928F929F92AF92BF92CF92DF92EF9287
:10013000FF920F931F93CF93DF938C011B01EA0172
:100140006115710519F0FB0191838083209749F0B7
:10015000CE010297839728F020E030E040E050E0A5
:10016000F6C0F801A1908F018A2D90E00E94850AC7
:10017000892BB9F7FDE2AF1631F4F801A1908F0198
:100180005524539407C0FBE2AF1619F4F801A1906F
:100190008F015524209719F0C031D105C1F4F0E347
:1001A000AF1679F4F8018081883711F0883549F469
:1001B000F801A1800E5F1F4FF2E05F2AC0E1D0E09E
:1001C00006C0209721F480E3A816E9F427C0C830C0
:1001D000D10531F1C930D10524F4C230D10531F552
:1001E0000CC0CA30D10589F0C031D105F9F4C12C59
:1001F000D12CE12CB8E0FB2E28C0C12CD12CE12C55
:10020000A0E4FA2E22C0CAE0D0E0FCECCF2EFCEC39
:10021000DF2EFCECEF2EFCE0FF2E17C0C8E0D0E094
:10022000C12CD12CE12CE0E1FE2E0FC09E01442711
:1002300037FD4095542F60E070E080E090E80E9428
:100240005D0AC901DA016C017D0120E030E040E087
:1002500050E060E03E01882477FC8094982C70ED9B
:10026000B72EBA0CE9E0EB1570F48A2D81548A316F
:1002700018F499ECB92E06C08A2D81568A3150F5B2
:1002800089EAB82EBA0C8B2D90E08C179D0714F5D7
:100290006F3FE1F0C216D306E406F506B0F0CA01DE
:1002A000B901A40193010E943E0A9B01AC012B0DF0
:1002B000311D411D511D2130F0E03F07F0E04F0797
:1002C000F0E85F0710F461E001C06FEFF801A19062
:1002D0008F01C5CF2114310481F0662331F0015024
:1002E0001040F1011183008308C051FE1AC0025072
:1002F0001040F1011183008314C067FF12C050FC4D
:1003000005C02FEF3FEF4FEF5FE704C020E030E084
:1003100040E050E882E290E09093AC028093AB0220
:1003200016C050FE08C050954095309521953F4F1E
:100330004F4F5F4F0CC057FF0AC082E290E090938E
:10034000AC028093AB022FEF3FEF4FEF5FE7B901B5
:10035000CA01DF91CF911F910F91FF90EF90DF9035
:10036000CF90BF90AF909F908F907F906F905F9055
:100370003F902F9008950F931F9389E060E00E94B3
:1003800020078AE061E00E94200782E060E00E948E
:10039000200783E060E00E94200784E060E00E9484
:1003A000200785E060E00E94200786E060E00E9470
:1003B000200787E060E00E94200789E061E00E945A
:1003C000E1068AE061E00E94E10682E061E00E94CD
:1003D000E10683E061E00E94E10684E061E00E94C2
:1003E000E10685E061E00E94E10686E061E00E94AE
:1003F000E10687E061E00E94E10609E812E0C80139
:1004000040E052EC61E070E00E945108C8014AE00F
:1004100050E060E070E00E94380A86E00E941D050E
:100420000E94510582E161E00E945E05C80160E022
:1004300071E00E94350AC8010E9432091F910F9194
:10044000089580916101813061F089E892E00E9415
:10045000D80818161906CCF789E892E00E94090915
:10046000089590919701923390F4E92FF0E0EB59C1
:10047000FE4F80819F5F90939701873771F084379B
:1004800061F0863751F0853741F0882339F41092B6
:1004900097011092610180E0089581E008950E9423
:1004A000210280934C010E94210280934D018AE435
:1004B00091E060E070E040E050E00E948C00862F08
:1004C0000895EF92FF920F931F93CF93DF930E94B3
:1004D0002102833509F414C184355CF58B3409F4A9
:1004E0009DC08C349CF4873409F462C088343CF499
:1004F000803809F47AC1843409F084C147C0883453
:1005000009F45BC0893409F07DC173C0803509F4FA
:10051000C4C081353CF48C3409F489C08D3409F0B1
:1005200071C19AC0813509F4C4C0823509F06AC12D
:10053000C9C0803709F4A8C0813794F48A3509F41A
:100540004AC18B353CF4843509F40FC1883509F074
:1005500059C13FC1873651F1893609F053C142C0B4
:10056000843709F4E7C085373CF4823709F4B4C016
:10057000833709F047C1B6C0873709F423C18837EC
:1005800009F424C1863709F03DC115C10E944F020C
:10059000F82EEE240E944F0290E0E82AF92A002764
:1005A000F7FC0095102FC801B70180C089E00FC18A
:1005B00089E061E00E94200725C1C0E0D0E08CE026
:1005C0000E947407019709F41DC1219683E0CA3E79
:1005D000D80709F417C161E070E080E090E00E9464
:1005E0004D06EDCF1092980189E892E067E171E045
:1005F0000FC00E9451051092980188EB91E00E9473
:100600007504882309F4FEC089E892E068EB71E084
:100610000E94350A89E892E060E0E0C00E94210271
:10062000182F0E9421028E52103319F6D0C0C0E05C
:10063000D0E08CE00E947407892B09F4E3C0219676
:1006400083E0CA3ED80709F4DDC061E070E080E0D5
:1006500090E00E944D06EDCF0E942102833559F0B3
:10066000883561F0893409F0CDC081E08093600164
:100670000E94FC05C7C01092600103C082E0809315
:1006800060010E945105BEC080916001882309F479
:10069000B9C084E98093BC00B5C089E892E060E508
:1006A0000E94110A65E070E080E090E00E944D0633
:1006B000A9C080916001813019F0823009F0A2C098
:1006C00080E00DC080916001813041F0813020F0E8
:1006D000823009F097C002C080E050C081E00E94E3
:1006E000CA054EC080916001813011F40E946405FA
:1006F00080916001823009F085C00E94640582C04B
:100700000E944F0290916001913049F0913020F0A9
:10071000923009F077C003C00E94120573C00E9496
:10072000A705813009F06EC089E892E06EE40E946E
:10073000110A68C0109297010E94210290919701BE
:10074000853741F4E92FF0E0EB59FE4F108210920B
:10075000970158C0923380F7E92FF0E0EB59FE4F34
:1007600080839F5F90939701E7CF0E944F02982F5D
:1007700080916001882309F045C0892F0E941705E8
:10078000A82FB0E0FD0134E0F595E7953A95E1F743
:10079000E95FFE4F808180936201AF70B070A95F06
:1007A000BE4F8C91809363011092640189E892E0BE
:1007B00062E671E004C089E892E065E671E00E94BB
:1007C000350A20C081E0809361011CC08AE060E0AE
:1007D000F1CE8AE0EECE89E892E06AE00E94110A4A
:1007E00089E892E00E9432090DC080919801882327
:1007F00049F489E892E060E071E00E94350A81E006
:1008000080939801DF91CF911F910F91FF90EF900E
:100810000895FF920F931F93F82E0E9464058F2D69
:100820000E94A705182F8823A1F000E00E948305ED
:100830008F2D0E94A705182F882359F061E070E0E2
:1008400080E090E00E944D060F5F0A3079F70E9429
:100850009F05812F1F910F91FF900895BF92CF9216
:10086000DF92EF92FF920F931F93CF93DF93D82ED7
:100870007B01142FC22EFB0110820E9409048823E1
:1008800011F080E028C0812F0E94A7050E948305F7
:100890008D2D81600E94A705E70110E001501040F6
:1008A000DD24C7FCD09408C080E00E94CA0589936B
:1008B00090E08C159D0539F0CE018E19B82E90E090
:1008C000801791078CF381E00E94CA050E949F0562
:1008D00018828B2D8F5FDF91CF911F910F91FF9029
:1008E000EF90DF90CF90BF900895EF92FF920F931B
:1008F0001F93DF93CF93CDB7DEB728970FB6F89449
:10090000DEBF0FBECDBF7C0188E061E00E94E10642
:1009100088E00E947407182F88E060E00E9420079A
:1009200080EAB70140E050E02AE004E30E942E0490
:10093000082F88E0612F0E942007002309F464C07B
:10094000B701D70190E020E0AE014F5F5F4F0AC0D2
:100950008C918C3229F4FA01E20FF11D90832F5F04
:100960009F5F11969017A0F34981E9E9F1E0DB015F
:1009700002C08D9181938A2F861B8417D0F3E42FB8
:10098000F0E0E756FE4F10829F818E81981740F469
:10099000F70101900020E9F73197EE19FF09EF8385
:1009A0009E819F5F3F81A8EAB1E020E007C0F70188
:1009B000E90FF11D80818D932F5F9F5F9317B8F32F
:1009C000E22FF0E0E756FE4F1786E8EAF1E0DF019C
:1009D0000D900020E9F7A95AB14020E008C0FC01C1
:1009E000E756FE4F87858D3209F430892F5F822FBD
:1009F00090E08A179B0798F3832F81548A3110F473
:100A00003093B7011092AE01802F28960FB6F8945C
:100A1000DEBF0FBECDBFCF91DF911F910F91FF9031
:100A2000EF9008958EBD0DB407FEFDCF08958EBDE5
:100A30000DB407FEFDCF8EB508950F931F93082FB9
:100A40008DE061E00E94E1068BE061E00E94E1063A
:100A50008AE061E00E94E1068DE060E00E942007EC
:100A60008BE060E00E9420078AE061E00E9420079E
:100A70008CB580618CBD8CB5902F93708C7F982B3A
:100A80009CBD8DB510E015950795159507950170DE
:100A90008E7F082B0DBD8CB580648CBD1F910F918E
:100AA00008958AE061E00E94200788E061E00E94EA
:100AB000E10688E060E00E9420070895637060937B
:100AC000B9008093B800089584EA8093BC0020E0C8
:100AD00030E095E0892F8A95F1F78091BC0087FD81
:100AE00006C02F5F3F4F8EE42032380799F7909170
:100AF000B900987F983011F480E0089580E090313B
:100B000009F081E0089584EA8093BC0020E030E0A1
:100B100095E0892F8A95F1F78091BC0087FD06C08A
:100B20002F5F3F4F8EE42032380799F78091B9004C
:100B300090E0887F803109F091E0892F089584E961
:100B40008093BC008091BC0084FDFCCF089580930D
:100B5000BB0084E88093BC0020E030E095E0892F62
:100B60008A95F1F78091BC0087FD06C02F5F3F4F4B
:100B70008EE42032380799F79091B900987F983227
:100B800039F0983129F080E0903419F081E008952F
:100B900080E008958823C1F484EC8093BC0020E0B9
:100BA00030E095E0892F8A95F1F78091BC0087FDB0
:100BB00006C02F5F3F4F8EE42032380799F78091AF
:100BC000BB009091B900089584E88093BC0020E0B8
:100BD00030E095E0892F8A95F1F78091BC0087FD80
:100BE00006C02F5F3F4F8EE42032380799F780917F
:100BF000BB009091B900089588E061E00E94E10691
:100C000088E061E00E94200708951F920F920FB6BE
:100C10000F9211242F933F938F939F93AF93BF9382
:100C20008091FC019091FD01A091FE01B091FF0126
:100C3000309100020196A11DB11D232F2D5F2D378C
:100C400020F02D570196A11DB11D20930002809325
:100C5000FC019093FD01A093FE01B093FF018091F0
:100C6000F8019091F901A091FA01B091FB01019670
:100C7000A11DB11D8093F8019093F901A093FA0191
:100C8000B093FB01BF91AF919F918F913F912F91B5
:100C90000F900FBE0F901F9018959B01AC017FB76E
:100CA000F8948091F8019091F901A091FA01B09126
:100CB000FB0166B5A89B05C06F3F19F00196A11D09
:100CC000B11D7FBFBA2FA92F982F8827860F911D9E
:100CD000A11DB11D62E0880F991FAA1FBB1F6A9555
:100CE000D1F7BC012DC0FFB7F8948091F801909125
:100CF000F901A091FA01B091FB01E6B5A89B05C0EE
:100D0000EF3F19F00196A11DB11DFFBFBA2FA92F0A
:100D1000982F88278E0F911DA11DB11DE2E0880F2D
:100D2000991FAA1FBB1FEA95D1F7861B970B885EF8
:100D30009340C8F2215030404040504068517C4FB1
:100D4000211531054105510571F60895789484B552
:100D5000826084BD84B5816084BD85B5826085BDB7
:100D600085B5816085BDEEE6F0E08081816080839D
:100D7000E1E8F0E010828081826080838081816080
:100D80008083E0E8F0E0808181608083E1EBF0E047
:100D9000808184608083E0EBF0E0808181608083EB
:100DA000EAE7F0E0808184608083808182608083D4
:100DB0008081816080838081806880831092C100FF
:100DC0000895CF93DF93482F50E0CA0186569F4F76
:100DD000FC0134914A575F4FFA018491882369F1ED
:100DE00090E0880F991FFC01E859FF4FA591B4913D
:100DF000FC01EE58FF4FC591D491662351F42FB7F3
:100E0000F8948C91932F909589238C9388818923D2
:100E10000BC0623061F42FB7F8948C91932F9095AA
:100E200089238C938881832B88832FBF06C09FB72B
:100E3000F8948C91832B8C939FBFDF91CF91089571
:100E4000482F50E0CA0182559F4FFC012491CA01EE
:100E500086569F4FFC0194914A575F4FFA01349197
:100E6000332309F440C0222351F1233071F02430A0
:100E700028F42130A1F0223011F514C02630B1F051
:100E80002730C1F02430D9F404C0809180008F77DE
:100E900003C0809180008F7D8093800010C084B556
:100EA0008F7702C084B58F7D84BD09C08091B0006A
:100EB0008F7703C08091B0008F7D8093B000E32FC7
:100EC000F0E0EE0FFF1FEE58FF4FA591B4912FB742
:100ED000F894662321F48C919095892302C08C911B
:100EE000892B8C932FBF0895682F70E0CB0182551A
:100EF0009F4FFC012491CB0186569F4FFC014491EA
:100F00006A577F4FFB019491992319F420E030E058
:100F10003CC0222351F1233071F0243028F42130D9
:100F2000A1F0223011F514C02630B1F02730C1F005
:100F30002430D9F404C0809180008F7703C0809161
:100F400080008F7D8093800010C084B58F7702C0B1
:100F500084B58F7D84BD09C08091B0008F7703C0B8
:100F60008091B0008F7D8093B000892F90E0880F32
:100F7000991F84589F4FFC01A591B4918C9120E05A
:100F800030E0842311F021E030E0C9010895089594
:100F90001F920F920FB60F9211242F933F934F93EE
:100FA0008F939F93EF93FF938091C00082FD1DC0AC
:100FB0004091C60020914102309142022F5F3F4F85
:100FC0002F733070809143029091440228173907A3
:100FD00071F0E0914102F0914202EF5FFD4F4083DA
:100FE000309342022093410202C08091C600FF91DB
:100FF000EF919F918F914F913F912F910F900FBE45
:101000000F901F901895E0919502F0919602E05C88
:10101000FF4F8191919120813181821B930B8F73BE
:101020009070892B11F00E94C70708951F920F92AC
:101030000FB60F9211242F933F938F939F93EF93AB
:10104000FF932091850230918602809187029091D2
:1010500088022817390731F48091C1008F7D809371
:10106000C10014C0E0918702F0918802EB5BFD4F54
:101070002081809187029091880201968F739070F1
:1010800090938802809387022093C600FF91EF918E
:101090009F918F913F912F910F900FBE0F901F90B6
:1010A0001895AF92BF92DF92EF92FF920F931F932A
:1010B000CF93DF93EC017A018B01DD24403081EE88
:1010C000580780E0680780E0780711F0DD24D394AA
:1010D00091E0A92EB12CEC89FD89DD2069F0C501D4
:1010E00008A002C0880F991F0A94E2F7808360E08D
:1010F00079E08DE390E005C0108260E874E88EE14D
:1011000090E0A80197010E945D0A215030404040C4
:101110005040569547953795279580E12030380700
:1011200020F0DD2011F0DD24D6CFE889F989308365
:10113000EA89FB89208319A2EE89FF89408121E099
:1011400030E0C9010C8C02C0880F991F0A94E2F7A5
:10115000482B4083EE89FF894081C9010D8C02C074
:10116000880F991F0A94E2F7482B4083EE89FF8984
:101170004081C9010E8C02C0880F991F0A94E2F7C2
:10118000482B4083EE89FF8980810F8C02C0220F9B
:10119000331F0A94E2F7209528232083DF91CF9113
:1011A0001F910F91FF90EF90DF90BF90AF90089547
:1011B000DC011C96ED91FC911D97E05CFF4F2191A5
:1011C000319180819181281B390B2F733070C901B7
:1011D0000895DC011C96ED91FC911D97E05CFF4F9A
:1011E00020813181E054F040DF01AE5BBF4F8D9133
:1011F0009C9111972817390719F42FEF3FEF07C07B
:101200008D919C91E80FF91F8081282F30E0C90152
:101210000895DC011C96ED91FC911D97E05CFF4F59
:1012200020813181E054F040DF01AE5BBF4F8D91F2
:101230009C9111972817390719F42FEF3FEF10C031
:101240008D919C911197E80FF91F20818D919C91B0
:10125000119701968F73907011969C938E9330E046
:10126000C9010895DC0191968C919197882339F0FA
:101270005496ED91FC915597808186FFF9CF919618
:101280001C920895CF93DF93EC01EE85FF85E05C1F
:10129000FF4F20813181E054F0402F5F3F4F2F738B
:1012A0003070DF01AE5BBF4F8D919C911197281775
:1012B0003907D1F3E05CFF4F80819181E054F04029
:1012C000E80FF91F6083EE85FF85E05CFF4F3183F7
:1012D0002083EE89FF89208181E090E00F8C02C09D
:1012E000880F991F0A94E2F7282B208381E089A3B5
:1012F000EC89FD8980818064808381E090E0DF91CA
:10130000CF91089510928C0210928B0288EE93E098
:10131000A0E0B0E080938D0290938E02A0938F02A4
:10132000B093900283E591E090938A0280938902C2
:1013300081E092E0909396028093950285E492E09A
:10134000909398028093970285EC90E090939A0294
:101350008093990284EC90E090939C0280939B028E
:1013600080EC90E090939E0280939D0281EC90E04F
:101370009093A00280939F0282EC90E09093A2024F
:101380008093A10286EC90E09093A4028093A30244
:1013900084E08093A50283E08093A60287E0809397
:1013A000A70285E08093A80281E08093A9020895B6
:1013B000CF93DF930E94A6060E94BB01C3E0D8E052
:1013C0000E9461022097E1F30E940308F9CFCF92B7
:1013D000DF92EF92FF920F931F93CF93DF937C01E5
:1013E0006B018A01C0E0D0E00FC0D6016D916D01A4
:1013F000D701ED91FC910190F081E02DC701099595
:10140000C80FD91F015010400115110571F7CE0109
:10141000DF91CF911F910F91FF90EF90DF90CF90D0
:101420000895DC01ED91FC910190F081E02D09958A
:101430000895CF93DF93EC016115710519F420E055
:1014400030E00FC0DB010D900020E9F71197A61BDB
:10145000B70BE881F9810280F381E02DAD01099598
:101460009C01C901DF91CF9108950E94190A089546
:10147000FC0144835583668377830895629FD0017E
:10148000739FF001829FE00DF11D649FE00DF11D3F
:10149000929FF00D839FF00D749FF00D659FF00DEE
:1014A0009927729FB00DE11DF91F639FB00DE11DDB
:1014B000F91FBD01CF0111240895A1E21A2EAA1B24
:1014C000BB1BFD010DC0AA1FBB1FEE1FFF1FA217F4
:1014D000B307E407F50720F0A21BB30BE40BF50BF1
:1014E000661F771F881F991F1A9469F7609570957A
:1014F000809590959B01AC01BD01CF010895EE0F41
:10150000FF1F0590F491E02D0994911106C08032DF
:1015100019F089508550D0F70895992788270895A4
:04152000F894FFCF6D
:1015240068656C6C6F0A00303132333435363738C5
:10153400394142434445465553425350492C50493E
:10154400432C30312C30312C44432C444335393036
:101554002C2D2D2D2D2D2D2D2D2D2D2D2D2D2D2DB8
:101564002D2D2D2D2D2D2D0A00003078303000002A
:101574000000004209E709D8080909E9083209000E
:00000001FF
