:100000000C9462000C948A000C948A000C948A0070
:100010000C948A000C948A000C948A000C948A0038
:100020000C948A000C948A000C948A000C948A0028
:100030000C948A000C948A000C948A000C948A0018
:100040000C94AD0A0C948A000C94330C0C947A0C2A
:100050000C948A000C948A000C948A000C948A00F8
:100060000C948A000C948A000000000024002700F1
:100070002A0000000000250028002B0000000000DE
:1000800023002600290004040404040404040202DA
:100090000202020203030303030301020408102007
:1000A0004080010204081020010204081020000012
:1000B0000007000201000003040600000000000029
:1000C0000000F10D11241FBECFEFD8E0DEBFCDBF81
:1000D00014E0A0E0B1E0E0E1F6E202C005900D928C
:1000E000AE37B107D9F715E0AEE7B4E001C01D9215
:1000F000A833B107E1F710E0C4ECD0E004C02297C8
:10010000FE010E940213C23CD107C9F70E94410EB2
:100110000C9406130C9400000F931F9309E115E053
:10012000C80160E071E00E946410C80161E071E004
:100130000E9464101F910F910895EF92FF920F9308
:100140001F9309E115E0C80160E071E00E946410AE
:1001500082E1E82E81E0F82EC801B7010E94641008
:10016000C80169E371E00E946410C80160E671E0B3
:100170000E946410C801B7010E9464101F910F9182
:10018000FF90EF900895DF93CF9300D0CDB7DEB707
:1001900080E5BE016F5F7F4F40E450E00E94CC09D4
:1001A00089819A818453924181F480E563E874E007
:1001B00042E450E00E947B0980E56FE774E046E48A
:1001C00050E00E947B0981E007C089E195E067E883
:1001D00071E00E94641080E00F900F90CF91DF914A
:1001E00008950F931F93182F062F0E942108812F27
:1001F0008E7F0E946008182F882321F4802F0E9490
:100200006008182F0E945C08812F1F910F9108959C
:100210001F93CF93DF938EE060E00E94B80B8EE0D7
:100220000E94960BEC0180E00E94930B8AE468E840
:100230000E94F10080937E0462E370E080E090E031
:100240000E94F50A8EE00E94960B8F5493404597CA
:1002500010F010E007C010E0CC5BD2406F9710F4B4
:1002600011E006C089E195E067EA71E00E94641040
:100270008AE468E00E94F10080937E0481E00E949D
:10028000930B812FDF91CF911F9108952F923F9271
:100290005F926F927F928F929F92AF92BF92CF9216
:1002A000DF92EF92FF920F931F93DF93CF93CDB71F
:1002B000DEB7AC970FB6F894DEBF0FBECDBFDE0140
:1002C0001596E9E5F4E088E001900D928150E1F7A0
:1002D000DE011D96E9E3F4E080E201900D92815089
:1002E000E1F79DE0692E712C6C0E7D1E5524539410
:1002F000882499241E010894211C311CE5E0F0E0BB
:10030000EC0FFD1FE80DF91D84E460810E94F100EF
:1003100080937E046AE070E080E090E00E94F50A3D
:1003200088E260EAA1010E94780A80937E0464E674
:1003300070E080E090E00E94F50A88E260EAA101A6
:100340000E94780A80937E0464E670E080E090E08A
:100350000E94F50A69817A818B819C8120917F04BA
:10036000309180044091810450918204E090830494
:10037000F090840400918504109186040E945B0A29
:100380005B016C01F301E080F18002811381C801FF
:10039000B70126E636E646E85FE30E9435129B0188
:1003A000AC01C601B5010E94311218168CF0C801CB
:1003B000B70123E333E343E75FE30E9435129B0178
:1003C000AC01C601B5010E94E21088230CF03EC0CA
:1003D00089E195E06FEB71E00E94C30F89E195E040
:1003E0000E947A0E89E195E061ED71E00E94C30FF1
:1003F000B4016F5F7F4F89E195E04AE050E00E94D1
:10040000910F89E195E06EED71E00E94C30F89E1E3
:1004100095E063EE71E00E94C30F89E195E0B601BB
:10042000A50124E030E00E94611089E195E066EFCB
:1004300071E00E9464106AE070E080E090E00E9449
:10044000F50A89E195E00E947A0E55240894811CF2
:10045000911C84E090E0680E791E98E08916910462
:1004600009F04CCF852DAC960FB6F894DEBF0FBEC9
:10047000CDBFCF91DF911F910F91FF90EF90DF9053
:10048000CF90BF90AF909F908F907F906F905F9034
:100490003F902F900895AF92BF92CF92DF92EF924C
:1004A000FF920F931F93DF93CF93CDB7DEB7609783
:1004B0000FB6F894DEBF0FBECDBFDE011596E7E69E
:1004C000F4E086E001900D928150E1F7DE011B9689
:1004D000E1E6F4E086E001900D928150E1F701E061
:1004E000EE24FF243BE0A32EB12CAC0EBD1E25E074
:1004F000C22ED12CCC0EDD1EF501EE0DFF1DD60156
:10050000AE0DBF1D80816C910E94F100182F62E337
:1005100070E080E090E00E94F50A1123D1F089E1BB
:1005200095E00E947A0E89E195E068EF71E00E9403
:10053000641089E195E069E172E00E94C30FB701A0
:100540006F5F7F4F89E195E04AE050E00E94A40F81
:1005500000E00894E11CF11C86E0E816F10461F665
:1005600088E260EAAE014F5F5F4F0E94780A809395
:100570007E0464E670E080E090E00E94F50A8091DD
:100580007E04882359F089E195E00E947A0E89E182
:1005900095E063E272E00E94641000E0802F6096B4
:1005A0000FB6F894DEBF0FBECDBFCF91DF911F9184
:1005B0000F91FF90EF90DF90CF90BF90AF90089594
:1005C0000F931F9382E161E00E941B080E941D0AA5
:1005D0000E942C0A09E115E0C80140E052EC61E0FC
:1005E00070E00E94C30CC80148EE53E060E070E088
:1005F0000E9477100E944B0280930F040E949D007E
:100600000E94C3000E948C001F910F9108950F93C8
:100610001F93CF93DF93182FEB010E942108812FA6
:1006200081600E946008082F882321F481E00E94E5
:100630008308182F0E945C081883802FDF91CF91C8
:100640001F910F9108952F923F924F925F927F9248
:100650008F929F92AF92BF92CF92DF92EF92FF92D2
:100660000F931F93DF93CF93CDB7DEB7A6970FB647
:10067000F894DEBF0FBECDBFDE011796E9E2F4E0CD
:1006800088E001900D928150E1F7DE011F96E1E2D2
:10069000F4E088E001900D928150E1F7DE01579679
:1006A000E9E1F4E088E001900D928150E1F7DE018C
:1006B0005F96E1E1F4E088E001900D928150E1F76E
:1006C0002FE0C22ED12CCC0EDD1E760197E1A92E93
:1006D000B12CAC0EBD1EF70111917F01812F61E09D
:1006E0000E94B80B812F61E00E94DE0B64E670E08F
:1006F00080E090E00E94F50AEA14FB0461F7772499
:10070000739400E010E08FE1282E312C2C0E3D1E5A
:100710002E010894411C511CB7E18B2E912C8C0E9C
:100720009D1EA7E0AA2EB12CAC0EBD1EF101E00F5C
:10073000F11F8081B2010E94070380937E04F401BF
:10074000E00FF11F9081898189238983891729F01E
:10075000F501E00FF11F108277240F5F1F4F083063
:10076000110521F7F60181916F0160E00E94DE0B17
:1007700064E670E080E090E00E94F50ACE14DF04A9
:1007800089F700E010E0FFE18F2E912C8C0E9D1E6A
:100790005E010894A11CB11CE7E1CE2ED12CCC0E39
:1007A000DD1E77E0E72EF12CEC0EFD1EF401E00FCC
:1007B000F11F8081B5010E94070380937E04F6013A
:1007C000E00FF11F8081998189238983882329F093
:1007D000F701E00FF11F108277240F5F1F4F0830E1
:1007E000110521F700E010E067E0A62EB12CAC0E59
:1007F000BD1E5FE0C52ED12CCC0EDD1E45E1F42ED2
:10080000F00EF501E00FF11F80818823E9F489E102
:1008100095E061E472E00E94C30F89E195E06F2DDD
:100820004AE050E00E94210F89E195E060E672E025
:100830000E94C30FF601E00FF11F89E195E060818E
:100840004AE050E00E94330F0F5F1F4F0830110540
:10085000A9F61B821C821D821E828AE468E40E9423
:10086000F10080937E046AE070E080E090E00E94F6
:10087000F50A8E010D5F1F4F88E260EAA8010E9411
:10088000780A80937E0464E670E080E090E00E9445
:10089000F50A88E260EAA8010E94780A80937E0443
:1008A00064E670E080E090E00E94F50A6B817C8154
:1008B0008D819E8120917F0430918004409181043C
:1008C00050918204E0908304F090840400918504A8
:1008D000109186040E945B0A24E13EEA47E45FE34C
:1008E0000E94E21088236CF489E195E068E672E0EA
:1008F0000E94C30F89E195E069E872E00E946410EC
:10090000772480E4BE016E5F7F4F0E9407038093CF
:100910007E048A81982F907184FF08C09A8389E1B0
:1009200095E061E972E00E9464107724872DA69615
:100930000FB6F894DEBF0FBECDBFCF91DF911F91F0
:100940000F91FF90EF90DF90CF90BF90AF909F906E
:100950008F907F905F904F903F902F9008954F928F
:100960005F926F927F929F92AF92BF92CF92DF92EF
:10097000EF92FF920F931F93DF93CF93CDB7DEB724
:1009800065970FB6F894DEBF0FBECDBFDE011E9691
:10099000E1E3F4E088E001900D928150E1F78EE010
:1009A0008A838FE08B8380E18C8381E18D8381E07A
:1009B0008E8382E08F8384E0888788E08987A2E045
:1009C000CA2ED12CCC0EDD1E7601F6E0AF2EB12C56
:1009D000AC0EBD1EF70111917F01812F61E00E94D5
:1009E000B80B812F61E00E94DE0B64E670E080E0CE
:1009F00090E00E94F50AEA14FB0461F799249394AD
:100A000000E010E02E010894411C511CE6E06E2E1F
:100A1000712C6C0E7D1E7EE0A72EB12CAC0EBD1E7F
:100A200082E4B2010E94070380937E04F301E00F89
:100A3000F11F9081898189238983891729F0F50124
:100A4000E00FF11F108299240F5F1F4F0430110532
:100A500039F7F60181916F0160E00E94DE0B64E6D8
:100A600070E080E090E00E94F50ACE14DF0489F780
:100A700000E010E05E010894A11CB11C66E0C62EE7
:100A8000D12CCC0EDD1E5EE0E52EF12CEC0EFD1E11
:100A900082E4B5010E94070380937E04F601E00F13
:100AA000F11F8081998189238983882329F0F701A7
:100AB000E00FF11F108299240F5F1F4F04301105C2
:100AC00039F700E010E04EE0C42ED12CCC0EDD1E34
:100AD0003FE0F32EF00EF601E00FF11F8081882336
:100AE000D9F489E195E06EEA72E00E94C30F89E1D2
:100AF00095E06F2D4AE050E00E94210F89E195E0DA
:100B00006CEC72E00E94C30F89E195E0602F4AE02F
:100B100050E00E94330F99240F5F1F4F04301105DE
:100B2000B9F61A861B861C861D868AE468E10E9437
:100B3000F10080937E046AE070E080E090E00E9423
:100B4000F50A8E01065F1F4F88E260EAA8010E9445
:100B5000780A80937E0464E670E080E090E00E9472
:100B6000F50A88E260EAA8010E94780A80937E0470
:100B700064E670E080E090E00E94F50A6A857B857B
:100B80008C859D8520917F04309180044091810463
:100B900050918204E0908304F090840400918504D5
:100BA000109186040E945B0A2AE939E949E55FE36E
:100BB0000E94E21088233CF489E195E063ED72E045
:100BC0000E94641099248AE468E20E94F1008093F4
:100BD0007E046AE070E080E090E00E94F50A8E01F9
:100BE000065F1F4F88E260EAA8010E94780A80939E
:100BF0007E0464E670E080E090E00E94F50A88E2FE
:100C000060EAA8010E94780A80937E0464E670E09E
:100C100080E090E00E94F50A6A857B858C859D8541
:100C200020917F043091800440918104509182048E
:100C3000E0908304F0908404009185041091860470
:100C40000E945B0A2AE939E949E55FE30E94E21064
:100C500088233CF489E195E063EF72E00E94641020
:100C60009924892D65960FB6F894DEBF0FBECDBFCF
:100C7000CF91DF911F910F91FF90EF90DF90CF9078
:100C8000BF90AF909F907F906F905F904F9008952E
:100C90001F93DF93CF9300D00F92CDB7DEB78BE0D9
:100CA00061E00E94B80B8CE061E00E94B80B8DE01F
:100CB00061E00E94B80B8BE061E00E94DE0B8CE0EB
:100CC00061E00E94DE0B8DE061E00E94DE0B88E4B3
:100CD000BE016F5F7F4F0E94070380937E0489816E
:100CE00081708983813011F411E007C089E195E0BA
:100CF00062E173E00E94641010E088E4BE016E5F60
:100D00007F4F0E94070380937E048A8182708A83CA
:100D1000823039F089E195E069E373E00E94641064
:100D200010E088E4BE016D5F7F4F0E94070380934F
:100D30007E048B8184708B83843039F089E195E067
:100D400060E673E00E94641010E08BE060E00E94B7
:100D5000DE0B8CE060E00E94DE0B8DE060E00E9424
:100D6000DE0B88E4BE016F5F7F4F0E940703809314
:100D70007E04898181708983882339F089E195E037
:100D800062E173E00E94641010E088E4BE016E5FCF
:100D90007F4F0E94070380937E048A8182708A833A
:100DA000882339F089E195E069E373E00E946410DB
:100DB00010E088E4BE016D5F7F4F0E9407038093BF
:100DC0007E048B81982F947082FF08C09B8389E1F9
:100DD00095E060E673E00E94641010E0812F0F90B0
:100DE0000F900F90CF91DF911F9108951F93DF9384
:100DF000CF9300D00F92CDB7DEB789E061E00E94BB
:100E0000B80B8AE061E00E94B80B8CE061E00E94C0
:100E1000B80B89E061E00E94DE0B8AE061E00E948D
:100E2000DE0B8CE061E00E94DE0B86E4BE016F5FAA
:100E30007F4F0E94070380937E0489818074898399
:100E400082E4BE016E5F7F4F0E94070380937E04A1
:100E50008A8180748A8382E4BE016D5F7F4F0E9425
:100E6000070380937E048B8180788B838981803413
:100E700011F411E007C089E195E067E873E00E9492
:100E8000641010E08A81803439F089E195E06CEAE1
:100E900073E00E94641010E08B81803839F089E1A2
:100EA00095E061ED73E00E94641010E089E060E07D
:100EB0000E94DE0B8AE060E00E94DE0B8CE060E0C6
:100EC0000E94DE0B86E4BE016F5F7F4F0E94070326
:100ED00080937E0489818074898382E4BE016E5F81
:100EE0007F4F0E94070380937E048A8180748A83E7
:100EF00082E4BE016D5F7F4F0E94070380937E04F2
:100F00008B8180788B838981882339F089E195E012
:100F100067E873E00E94641010E08A81882339F04A
:100F200089E195E06CEA73E00E94641010E08B8127
:100F3000882339F089E195E061ED73E00E94641047
:100F400010E0812F0F900F900F90CF91DF911F91A4
:100F500008951F9380910F04882309F46AC081309B
:100F600009F067C080918704882309F062C08AE491
:100F700068E00E94F10080937E040E944601182FD1
:100F800080930F040E94F60680930F04882311F4C7
:100F900010E004C0812F111181E0182F0E94480633
:100FA00080930F04882309F410E00E94AF0480931B
:100FB0000F04882309F410E00E94230380930F0498
:100FC000882309F410E00E94080180930F0488230D
:100FD00089F0113079F48AE462E00E94F100809394
:100FE0007E0489E195E00E947A0E89E195E066EF42
:100FF00073E012C080918704882381F48AE464E05E
:101000000E94F10080937E0489E195E00E947A0EAF
:1010100089E195E062E074E00E94641068EB7BE097
:1010200080E090E00E94F50A0E944B0281E08093EC
:1010300087041F91089563706093B9008093B8008E
:10104000089584EA8093BC0020E030E095E0892F89
:101050008A95F1F78091BC0087FD06C02F5F3F4F56
:101060008EE42032380799F79091B900987F983034
:1010700011F480E0089580E0903109F081E0089556
:1010800084EA8093BC0020E030E095E0892F8A95C7
:10109000F1F78091BC0087FD06C02F5F3F4F8EE4C3
:1010A0002032380799F78091B90090E0887F80312D
:1010B00009F091E0892F089584E98093BC00089598
:1010C0008093BB0084E88093BC0020E030E095E092
:1010D000892F8A95F1F78091BC0087FD06C02F5FAC
:1010E0003F4F8EE42032380799F79091B900987FEE
:1010F000983239F0983129F080E0903419F081E08D
:10110000089580E008958823C1F484EC8093BC00A6
:1011100020E030E095E0892F8A95F1F78091BC00BE
:1011200087FD06C02F5F3F4F8EE42032380799F7C6
:101130008091BB009091B900089584E88093BC0031
:1011400020E030E095E0892F8A95F1F78091BC008E
:1011500087FD06C02F5F3F4F8EE42032380799F796
:101160008091BB009091B900089590E0880F991F7D
:101170008093BB0084E88093BC0020E030E095E0E1
:10118000892F8A95F1F78091BC0087FD06C02F5FFB
:101190003F4F8EE42032380799F78091B90090E0F4
:1011A000887F883109F091E0892F0895880F816048
:1011B0008093BB0084E88093BC0020E030E095E0A1
:1011C000892F8A95F1F78091BC0087FD06C02F5FBB
:1011D0003F4F8EE42032380799F78091B90090E0B4
:1011E000887F803409F091E0892F08958CB58F7B3A
:1011F0008CBD08950F931F93082F8DE061E00E942E
:10120000B80B8BE061E00E94B80B8AE061E00E94BD
:10121000B80B8DE060E00E94DE0B8BE060E00E9486
:10122000DE0B8AE061E00E94DE0B8CB580618CBD34
:101230008CB5902F93708C7F982B9CBD8DB510E052
:10124000159507951595079501708E7F082B0DBD97
:101250008CB580648CBD1F910F910895FF920F9300
:101260001F93F82E0E9421088F2D0E94B508182F79
:101270008823A1F000E00E9440088F2D0E94B5084D
:10128000182F882359F061E070E080E090E00E9420
:10129000F50A0F5F0A3079F70E945C08812F1F91D1
:1012A0000F91FF900895FF920F931F93CF93DF93B9
:1012B000F82E8B01EA014F3F510509F0A8F40E9476
:1012C0002E09882389F48C2F0E9460080E94400810
:1012D0008F2D0E94D60881E00E948308F801808348
:1012E0000E945C0881E001C080E0DF91CF911F91F6
:1012F0000F91FF900895AF92BF92CF92DF92EF923D
:10130000FF920F931F93DF93CF9300D000D0CDB700
:10131000DEB7D82E5B017A010894E11CF11CBE01F6
:101320006F5F7F4F0E945309C82E87010F5F1F4FC9
:101330008D2DBE016E5F7F4FA7010E945309F82ECD
:101340008D2DBE016D5F7F4FA8010E945309E82ECD
:101350000F5F1F4F8D2DBE016C5F7F4FA8010E9454
:101360005309FC0CFE0C29813A814B815C81F5010B
:1013700020833183428353838F0D0F900F900F9002
:101380000F90CF91DF911F910F91FF90EF90DF9021
:10139000CF90BF90AF900895CF92DF92EF92FF92DF
:1013A0000F931F93DF93CF9300D0CDB7DEB7F82E06
:1013B0006B018A01BE016F5F7F4F0E945309E82EC7
:1013C0000F5F1F4F8F2DBE016E5F7F4FA8010E94E0
:1013D000530929813A81F601318320838E0D0F90C4
:1013E0000F90CF91DF911F910F91FF90EF90DF90C1
:1013F000CF9008951F93182F88E061E00E94B80BEA
:1014000088E060E00E94DE0B0E94210880EC0E94D0
:10141000600880E20E94600884E00E94600880E02A
:101420000E9460080E945C0884E690E00E944E0BD7
:10143000812F0E94FA081F9108958AE061E00E94BE
:10144000DE0B82E161E00E941B0886E00E94FA093F
:1014500086E00E94FA08089588E061E00E94B80BD7
:1014600088E061E00E94DE0B81E090E00E944E0B7C
:101470000E94F6088DE060E00E94B80B8BE060E00F
:101480000E94B80B81E090E00E944E0B0E94210860
:1014900080EC0E94600880E80E9460088CE00E9456
:1014A000600880E00E9460080E945C0884E690E08A
:1014B0000E944E0B0895AF92BF92CF92DF92EF92AF
:1014C000FF920F931F9359016A010E947F11A80197
:1014D00097010E947D10A60195010E9435121F916F
:1014E0000F91FF90EF90DF90CF90BF90AF90089555
:1014F000FF920F931F93CF93DF93F82E162FEA01DD
:101500000E9421088F2D8E7F0E946008082F88235B
:10151000B9F4812F0E946008082F812F0E94600873
:101520000E9421088F2D81600E946008082B41F4E1
:1015300080E00E948308F82E81E00E948308182F23
:101540000E945C081883F9821A821B82802FDF9127
:10155000CF911F910F91FF9008951F920F920FB698
:101560000F9211242F933F938F939F93AF93BF9329
:1015700080918C0490918D04A0918E04B0918F0481
:10158000309190040196A11DB11D232F2D5F2D37A1
:1015900020F02D570196A11DB11D2093900480933A
:1015A0008C0490938D04A0938E04B0938F0480914B
:1015B000880490918904A0918A04B0918B040196CB
:1015C000A11DB11D8093880490938904A0938A047F
:1015D000B0938B04BF91AF919F918F913F912F91C9
:1015E0000F900FBE0F901F9018959B01AC017FB715
:1015F000F8948091880490918904A0918A04B09114
:101600008B0466B5A89B05C06F3F19F00196A11D1C
:10161000B11D7FBFBA2FA92F982F8827860F911D44
:10162000A11DB11D62E0880F991FAA1FBB1F6A95FB
:10163000D1F7BC012DC0FFB7F89480918804909138
:101640008904A0918A04B0918B04E6B5A89B05C0DB
:10165000EF3F19F00196A11DB11DFFBFBA2FA92FB1
:10166000982F88278E0F911DA11DB11DE2E0880FD4
:10167000991FAA1FBB1FEA95D1F7861B970B885E9F
:101680009340C8F2215030404040504068517C4F58
:10169000211531054105510571F60895019739F07D
:1016A000880F991F880F991F02970197F1F70895E6
:1016B000789484B5826084BD84B5816084BD85B52D
:1016C000826085BD85B5816085BDEEE6F0E08081F4
:1016D00081608083E1E8F0E0108280818260808315
:1016E000808181608083E0E8F0E080818160808398
:1016F000E1EBF0E0808184608083E0EBF0E08081CA
:1017000081608083EAE7F0E080818460808380816B
:101710008260808380818160808380818068808313
:101720001092C1000895809310040895982F8E3070
:1017300008F09E509770809110048295880F880F52
:10174000807C892B80937C0080917A0080648093D8
:101750007A0080917A0086FDFCCF2091780040913C
:101760007900942F80E030E0282B392BC9010895AF
:10177000482F50E0CA0186569F4FFC0124914A57DA
:101780005F4FFA0184918823C1F0E82FF0E0EE0F5B
:10179000FF1FE859FF4FA591B491662341F49FB70D
:1017A000F8948C91209582238C939FBF08959FB7C6
:1017B000F8948C91822B8C939FBF0895482F50E012
:1017C000CA0182559F4FFC012491CA0186569F4F42
:1017D000FC0194914A575F4FFA013491332309F485
:1017E00040C0222351F1233071F0243028F42130FD
:1017F000A1F0223011F514C02630B1F02730C1F02D
:101800002430D9F404C0809180008F7703C0809188
:1018100080008F7D8093800010C084B58F7702C0D8
:1018200084B58F7D84BD09C08091B0008F7703C0DF
:101830008091B0008F7D8093B000E32FF0E0EE0F39
:10184000FF1FEE58FF4FA591B4912FB7F894662370
:1018500021F48C919095892302C08C91892B8C93D3
:101860002FBF089508951F920F920FB60F92112463
:101870002F933F934F938F939F93EF93FF934091B9
:10188000C6002091D1043091D2042F5F3F4F2F73B7
:1018900030708091D3049091D4042817390759F0FF
:1018A000E091D104F091D204EF56FB4F4083309386
:1018B000D2042093D104FF91EF919F918F914F918A
:1018C0003F912F910F900FBE0F901F901895E091B0
:1018D0002505F0912605E05CFF4F819191912081D3
:1018E0003181821B930B8F739070892B11F00E94B2
:1018F000320C08951F920F920FB60F9211242F935E
:101900003F934F935F936F937F938F939F93AF9387
:10191000BF93EF93FF9320911505309116058091A9
:101920001705909118052817390731F48091C100E7
:101930008F7D8093C10016C0E0911705F0911805C6
:10194000EB52FB4F4081809117059091180501964D
:1019500060E470E00E94B712909318058093170519
:101960004093C600FF91EF91BF91AF919F918F91EE
:101970007F916F915F914F913F912F910F900FBE8B
:101980000F901F901895AF92BF92DF92EF92FF9247
:101990000F931F93CF93DF93EC017A018B01DD242A
:1019A000403081EE580780E0680780E0780711F04A
:1019B000DD24D39491E0A92EB12CEC89FD89DD20A2
:1019C00069F0C5010E8C02C0880F991F0A94E2F7D6
:1019D000808360E079E08DE390E005C0108260E8EC
:1019E00074E88EE190E0A80197010E94CA1221508C
:1019F000304040405040569547953795279580E1B7
:101A00002030380720F0DD2011F0DD24D6CFE88922
:101A1000F9893083EA89FB892083EE89FF89408137
:101A200021E030E0C9010A8C02C0880F991F0A9496
:101A3000E2F7482B4083EE89FF894081C9010B8C76
:101A400002C0880F991F0A94E2F7482B4083EE8961
:101A5000FF894081C9010C8C02C0880F991F0A942C
:101A6000E2F7482B4083EE89FF8980810D8C02C00C
:101A7000220F331F0A94E2F7209528232083DF9159
:101A8000CF911F910F91FF90EF90DF90BF90AF909B
:101A90000895DC011C96ED91FC911D97E05CFF4FD1
:101AA0002191319180819181281B390B2F733070E6
:101AB000C9010895DC011C96ED91FC911D97E05C35
:101AC000FF4F20813181E054F040DF01AE5BBF4F1A
:101AD0008D919C9111972817390719F42FEF3FEF3B
:101AE00007C08D919C91E80FF91F8081282F30E06D
:101AF000C9010895DC011C96ED91FC911D97E05CF5
:101B0000FF4F20813181E054F040DF01AE5BBF4FD9
:101B10008D919C9111972817390719F42FEF3FEFFA
:101B200010C08D919C911197E80FF91F20818D9124
:101B30009C91119701968F73907011969C938E9340
:101B400030E0C9010895FC0186859785DC01A05C21
:101B5000BF4FFC01EE5BFF4F2D913C9111978081AF
:101B6000918128173907C1F70895CF93DF93EC01CE
:101B7000462FEE85FF85E05CFF4F80819181E05428
:101B8000F040019660E470E00E94B7129C01DF0112
:101B9000AE5BBF4F8D919C91119728173907D1F3F8
:101BA000E05CFF4F80819181E054F040E80FF91F25
:101BB0004083EE85FF85E05CFF4F31832083EE8913
:101BC000FF89208181E090E00D8C02C0880F991F71
:101BD0000A94E2F7282B208381E090E0DF91CF91F7
:101BE000089510921C0510921B0588EE93E0A0E06A
:101BF000B0E080931D0590931E05A0931F05B09340
:101C0000200581E794E090931A058093190581E9F6
:101C100094E0909326058093250585ED94E09093BC
:101C200028058093270585EC90E090932A05809302
:101C3000290584EC90E090932C0580932B0580EC93
:101C400090E090932E0580932D0581EC90E0909389
:101C5000300580932F0586EC90E0909332058093B9
:101C6000310584E08093330583E08093340587E079
:101C70008093350585E08093360581E080933705B4
:101C80000895CF93DF930E94580B0E94E002C7E6AD
:101C9000DCE00E94A9072097E1F30E94670CF9CFCE
:101CA000CF92DF92EF92FF920F931F93CF93DF9328
:101CB0007C016B018A01C0E0D0E00FC0D6016D91BC
:101CC0006D01D701ED91FC910190F081E02DC701EC
:101CD0000995C80FD91F015010400115110571F762
:101CE000CE01DF91CF911F910F91FF90EF90DF9088
:101CF000CF900895EF92FF920F931F938C01DC0118
:101D0000ED91FC910190F081E02D6DE009957C0151
:101D1000D801ED91FC910190F081E02DC8016AE0BD
:101D200009959C012E0D3F1DC9011F910F91FF9038
:101D3000EF900895CF93DF93DB010D900020E9F73A
:101D40001197A61BB70BEC01E881F9810280F381A2
:101D5000E02DAD010995DF91CF9108954F925F92EB
:101D60007F928F929F92AF92BF92CF92DF92EF922B
:101D7000FF920F931F93DF93CF93CDB7DEB7A19759
:101D80000FB6F894DEBF0FBECDBF2C01742ECB0171
:101D9000223008F42AE019A231E2C32ED12CCC0E55
:101DA000DD1E822E9924AA24BB24672D752FA50140
:101DB00094010E94CA1279018A01C801B701A501E4
:101DC00094010E949812472D461B0894C108D1081F
:101DD0004A3014F4405D01C0495CF6014083E114CF
:101DE000F1040105110521F07E2C5F2DC801DDCF26
:101DF000C201B6010E949A0EA1960FB6F894DEBFFA
:101E00000FBECDBFCF91DF911F910F91FF90EF904B
:101E1000DF90CF90BF90AF909F908F907F905F901A
:101E20004F900895DC012115310541F4ED91FC91AD
:101E30000190F081E02D642F099508950E94AE0E67
:101E40000895EF92FF920F931F939A01E62EFF24BD
:101E500000E010E0B801A7010E94120F1F910F913E
:101E6000FF90EF900895CF92DF92EF92FF920F9341
:101E70001F936C01E62E9A01FF2400E010E0B801E8
:101E8000A7010E94120F8C01C6010E947A0E080F52
:101E9000191FC8011F910F91FF90EF90DF90CF9015
:101EA0000895CF92DF92EF92FF920F931F93CF93FB
:101EB000DF93EC016A017B012115310541F4E881D2
:101EC000F9810190F081E02D642F09951FC02A301F
:101ED0003105D1F477FF17C0E881F9810190F081D5
:101EE000E02D6DE209958C0144275527BA014C1964
:101EF0005D096E097F09CE012AE00E94AE0E9801AD
:101F0000280F391F04C02AE00E94AE0E9C01C901AF
:101F1000DF91CF911F910F91FF90EF90DF90CF90C5
:101F20000895EF92FF920F931F937B019A01002770
:101F3000F7FC0095102FB801A7010E94510F1F91C7
:101F40000F91FF90EF900895CF92DF92EF92FF9262
:101F50000F931F936C017B019A010027F7FC0095FA
:101F6000102FB801A7010E94510F8C01C6010E94D9
:101F70007A0E080F191FC8011F910F91FF90EF9063
:101F8000DF90CF9008950E949A0E08957F928F92CD
:101F90009F92AF92BF92CF92DF92EF92FF920F93F8
:101FA0001F93CF93DF934C017A018B01722ECB01EB
:101FB000BA0120E030E040E050E00E94E21087FDEE
:101FC00003C0C0E0D0E00EC0D401ED91FC910190BF
:101FD000F081E02DC4016DE20995EC0117FB10952D
:101FE00017F9109520E030E040E05FE3AA240BC031
:101FF000CA01B90120E030E040E251E40E94E6105D
:102000009B01AC01A394A71498F3C801B7010E94E7
:102010007E105B016C010E9453117B018C01C40195
:10202000B801A7012AE030E00E94120FC80FD91FA3
:10203000772039F0C4016DE074E00E949A0EC80F59
:10204000D91FC801B7010E947F119B01AC01C601D5
:10205000B5010E947D1024C020E030E040E251E450
:102060000E9435127B018C010E944E115B016C01B4
:10207000CC24B7FCC094DC2CC401B601A5012AE035
:1020800030E00E94510FC80FD91FC601B5010E9450
:1020900081119B01AC01C801B7010E947D107A94A7
:1020A0007720D1F6CE01DF91CF911F910F91FF9054
:1020B000EF90DF90CF90BF90AF909F908F907F90E8
:1020C00008950E94C60F0895EF92FF920F931F93F9
:1020D0007C010E949A0E8C01C7010E947A0E080FA3
:1020E000191FC8011F910F91FF90EF900895FC01F7
:1020F000448355836683778308955058BB27AA2766
:102100000ED075C166D130F06BD120F031F49F3F15
:1021100011F41EF45BC10EF4E095E7FB51C1E92F09
:1021200077D180F3BA17620773078407950718F011
:1021300071F49EF58FC10EF4E0950B2EBA2FA02DF1
:102140000B01B90190010C01CA01A0011124FF2764
:10215000591B99F0593F50F4503E68F11A16F0405F
:10216000A22F232F342F4427585FF3CF469537955E
:102170002795A795F0405395C9F77EF41F16BA0B23
:10218000620B730B840BBAF09150A1F0FF0FBB1FD1
:10219000661F771F881FC2F70EC0BA0F621F731F1A
:1021A000841F48F4879577956795B795F7959E3F77
:1021B00008F0B3CF9395880F08F09927EE0F979505
:1021C00087950895D9D008F481E008950CD00FC107
:1021D00007D140F0FED030F021F45F3F19F0F0C09D
:1021E000511139C1F3C014D198F39923C9F3552380
:1021F000B1F3951B550BBB27AA27621773078407FA
:1022000038F09F5F5F4F220F331F441FAA1FA9F3AF
:1022100033D00E2E3AF0E0E830D091505040E695A1
:10222000001CCAF729D0FE2F27D0660F771F881F02
:10223000BB1F261737074807AB07B0E809F0BB0BF1
:10224000802DBF01FF2793585F4F2AF09E3F510515
:1022500068F0B6C000C15F3FECF3983EDCF38695B2
:1022600077956795B795F7959F5FC9F7880F911D8B
:102270009695879597F90895E1E0660F771F881F77
:10228000BB1F621773078407BA0720F0621B730B2A
:10229000840BBA0BEE1F88F7E095089504D068947C
:1022A000B111D9C00895BCD088F09F5790F0B92FD4
:1022B0009927B751A0F0D1F0660F771F881F991F9B
:1022C0001AF0BA95C9F712C0B13081F0C3D0B1E0AD
:1022D0000895C0C0672F782F8827B85F39F0B93FBD
:1022E000CCF3869577956795B395D9F73EF490959D
:1022F0008095709561957F4F8F4F9F4F0895E8941B
:1023000009C097FB3EF490958095709561957F4F3D
:102310008F4F9F4F9923A9F0F92F96E9BB279395EB
:10232000F695879577956795B795F111F8CFFAF4FB
:10233000BB0F11F460FF1BC06F5F7F4F8F4F9F4F2C
:1023400016C0882311F096E911C0772321F09EE88A
:10235000872F762F05C0662371F096E8862F70E0F0
:1023600060E02AF09A95660F771F881FDAF7880FCA
:102370009695879597F90895990F0008550FAA0B20
:10238000E0E8FEEF16161706E807F907C0F0121688
:102390001306E407F50798F0621B730B840B950B8B
:1023A00039F40A2661F0232B242B252B21F40895E0
:1023B0000A2609F4A140A6958FEF811D811D08957D
:1023C00097F99F6780E870E060E008959FEF80ECE8
:1023D000089500240A94161617061806090608958B
:1023E00000240A9412161306140605060895092EF1
:1023F0000394000C11F4882352F0BB0F40F4BF2B60
:1024000011F460FF04C06F5F7F4F8F4F9F4F08959F
:1024100057FD9058440F551F59F05F3F71F0479595
:10242000880F97FB991F61F09F3F79F0879508957A
:10243000121613061406551FF2CF4695F1DF08C099
:10244000161617061806991FF1CF869571056105B6
:1024500008940895E894BB2766277727CB0197F95E
:1024600008958ADF08F48FEF08950BD0C0CFB1DF55
:1024700028F0B6DF18F0952309F0A2CFA7CF1124DA
:10248000EACFC6DFA0F3959FD1F3950F50E0551F1B
:10249000629FF001729FBB27F00DB11D639FAA27B9
:1024A000F00DB11DAA1F649F6627B00DA11D661F08
:1024B000829F2227B00DA11D621F739FB00DA11D29
:1024C000621F839FA00D611D221F749F3327A00DE3
:1024D000611D231F849F600D211D822F762F6A2F7F
:1024E00011249F5750408AF0E1F088234AF0EE0F04
:1024F000FF1FBB1F661F771F881F91505040A9F711
:102500009E3F510570F05CCFA6CF5F3FECF3983E45
:10251000DCF3869577956795B795F795E7959F5F77
:10252000C1F7FE2B880F911D9695879597F9089511
:10253000629FD001739FF001829FE00DF11D649FA7
:10254000E00DF11D929FF00D839FF00D749FF00D33
:10255000659FF00D9927729FB00DE11DF91F639FD4
:10256000B00DE11DF91FBD01CF011124089597FBA6
:10257000092E07260AD077FD04D02ED006D00020E1
:102580001AF4709561957F4F0895F6F790958195AF
:102590009F4F0895A1E21A2EAA1BBB1BFD010DC07F
:1025A000AA1FBB1FEE1FFF1FA217B307E407F50703
:1025B00020F0A21BB30BE40BF50B661F771F881FDF
:1025C000991F1A9469F760957095809590959B0175
:1025D000AC01BD01CF010895AA1BBB1B51E107C08F
:1025E000AA1FBB1FA617B70710F0A61BB70B881FA3
:1025F000991F5A95A9F780959095BC01CD01089532
:10260000EE0FFF1F0590F491E02D0994F894FFCF91
:10261000002050524F4752414D2052554E4E494E88
:1026200047002A2A2A2A2A2A2A2A2A2A2A2A2A2A17
:102630002A2A2A2A2A2A2A2A2A2A2A2A2A2A2A2AFA
:102640002A2A2A2A2A2A2A2A002A202020204C69DB
:102650006E6475696E6F20446961676E6F7374692B
:10266000632050726F6772616D20202020202A0045
:102670002A20202020202020202020202020202050
:10268000202020202020202020202020202020204A
:1026900020202020202A0043616C696272617469E5
:1026A0006F6E206E6F7420666F756E64206F6E2083
:1026B000444331343931004661696C732054657389
:1026C000742333312D20567265662050696E0020C8
:1026D000566F6C74616765204661696C7572652020
:1026E0000054657374204E756D6265723A00202047
:1026F00020200020566F6C7461676520526561640C
:10270000696E673A200056002A2A2A2A2A20494E52
:10271000495449414C495A452041434B2045525266
:102720004F52202A2A2A2A2A004465766963653A8C
:102730002055002A2A2A2A2A2041434B204552525A
:102740004F52204C544332343631202A2A2A2A2A26
:10275000004661696C73204469676974616C20503C
:10276000696E2074657374206E756D6265722000E9
:102770003A2050696E2044004661696C73204469B8
:10278000676974616C2050696E2074657374206E83
:10279000756D626572203239002050696E204438B0
:1027A000004661696C7320546573742333302D20A7
:1027B000474E442070696E206F6E204A3600466195
:1027C000696C7320416E616C6F672050696E207474
:1027D000657374206E756D62657220003A50696E83
:1027E000204100204661696C732054657374202376
:1027F00031392D204134206174204A36206F7220F7
:102800004A37004661696C73205465737420233223
:10281000302D204135206174204A36206F72204AC5
:102820003700204661696C7320546573742023312E
:10283000322D20494353502070696E203420436F5D
:102840006E74696E7569747900204661696C7320D5
:1028500054657374202331332D2049435350207025
:10286000696E203120436F6E74696E7569747900EA
:10287000204661696C732054657374202331342DB4
:1028800020494353502070696E203320436F6E748B
:10289000696E7569747900204661696C73205465AE
:1028A00073742023392D204A312070696E20313411
:1028B00020436F6E74696E75697479002046616992
:1028C0006C732054657374202331302D204A3120DD
:1028D00070696E203620436F6E74696E7569747905
:1028E00000204661696C7320546573742023313174
:1028F0002D204A312070696E203520436F6E746937
:102900006E7569747900556E6974205061737365D2
:102910007300556E6974204661696C73002E000166
:102920000146464646464640400102040810200241
:1029300004020304050607090A010101010101015E
:10294000010101010101010101A01A8F3FC52050C1
:102950003FE17A543F48E17A3F713D4A3F91ED3C77
:102960003FB81E053F85EB513F010204081020408F
:102970008040424446484AFFFF00FFFF000000003D
:0E29800000B50D500E490D7A0D5A0DA30D0035
:00000001FF
