:1000000008308A00002800008316861283128612A8
:100010001308831603175A088312031393008316D9
:10002000140C031C10288312130883160317DC001A
:1000300083120313130893018316140C031C1D2849
:100040008312130883160317DB000313861283122F
:100050008616831603175B08F8005C08F900031383
:1000600083128A150A12E1280830F8000430F700DC
:10007000F70B38288711A01120088316870003305A
:10008000F700F70B41280317E60D831203138712BD
:10009000031C5028A01620088316870054288312BA
:1000A000A01220088316870000008312A0152008E4
:1000B000831687008312871D5B28F80B36280430CF
:1000C000F700F70B61288711A0112008831687001D
:1000D00000008312A0162008831687000330F70063
:1000E000F70B70280330F700F70B74288312A01564
:1000F0002008831687008312871D7C28F8010330AF
:10010000F700F70B8128871A78148711A0112008AF
:100110008316870083128712A01220088316870097
:1001200083120800083083160317E6007708E700FB
:1001300083120313A0162008831687000330F700EC
:10014000F70BA0288312A0152008831687008312BE
:10015000871DA828871A0314871E0310F80D043082
:10016000F700F70BB128A01120088316870083122F
:10017000871183160317E60B982883120313A01622
:100180002008831687000330F700F70BC528831279
:1001900087128316031767080319D52883120313E0
:1001A000A012200883168700031700008312031390
:1001B000A0152008831687008312871DDD280430D0
:1001C000F700F70BE1288711A0112008831687009C
:1001D0000330F700F70BEA2883128712A0122008D9
:1001E0008316870083120800E43084008317000818
:1001F000031907290630F800F701F70BFD28F80B63
:10020000FC287B30F700F70B0329800BFA28080045
:1002100083160317DC01DB01031386128312861297
:1002200020162008831687008312071E3C29831698
:1002300003175C08FA005B08DB0A0319DC0AE1001B
:100240007A08E200023C03183229FF3A031D2C29E8
:100250006108E83C03183229F701F801F901FA01B5
:10026000812939290130E40083120313F420831615
:1002700003178312031310291308831603175A0850
:100280008312031393008316140C031C4429831256
:10029000130883160317E000831203131308930156
:1002A0008316140C031C5129831213088316031799
:1002B000DF0083120313130893018316140C031C2D
:1002C0005E298312130883160317DE0083120313BB
:1002D000130893018316140C031C6B298312130853
:1002E00083160317DD000313861283128616831606
:1002F00003175D08F7005E08F8005F08F900600862
:10030000FA00031383128A150A12B52983160317FC
:10031000DD01DC015B08E3005A08E20003138612EA
:100320008312861220162008831687008312071E68
:10033000BE29831603175D08FA005C08DC0A03195E
:10034000DD0AE4007A08E500023C0318B429FF3A0C
:10035000031DAE296408E83C0318B429F701F8012D
:10036000F901FA01082ABB290130E40083120313C2
:10037000F42083160317831203139229130883169C
:10038000031763088312031393008316140C031CD2
:10039000C6298312130883160317E100831203137F
:1003A000130883160317620883120313930083163E
:1003B000140C031CD8298312130883160317E000BA
:1003C00083120313130893018316140C031CE529ED
:1003D0008312130883160317DF0083120313130815
:1003E00093018316140C031CF2298312130883163D
:1003F0000317DE0003138612831286168316031773
:100400005E08F7005F08F8006008F9006108FA006C
:10041000031383128A150A12C82983160317DC01F5
:10042000DB0103138612831286122016200883161E
:1004300087008312071E412A831603175C08FA00FF
:100440005B08DB0A0319DC0AE1007A08E200023CDF
:100450000318372AFF3A031D312A6108E83C0318C4
:10046000372AF701F801F901FA01862A3E2A0130FC
:10047000E40083120313F42083160317831203137B
:10048000152A1308831603175A08831203139300BF
:100490008316140C031C492A8312130883160317AE
:1004A000E00083120313130893018316140C031C3A
:1004B000562A8312130883160317DF0083120313CF
:1004C000130893018316140C031C632A8312130868
:1004D00083160317DE008312031313089301831698
:1004E000140C031C702A8312130883160317DD00F3
:1004F0000313861283128616831603175D08F7000E
:100500005E08F8005F08F9006008FA000313831220
:100510008A150A12922A831603175C08DE005B080C
:10052000DD00031386128312861213088316031745
:100530005A088312031393008316140C031C9D2A7C
:1005400083121308831603175E08831203139300A4
:100550008316140C031CA92A83121308831603178D
:100560005D088312031393008316140C031CB52A31
:100570008612831286168A150A12A72A8316031773
:100580005E08E1005D08E0005A085C04DF00031328
:100590008612831286121308831603175F088312CC
:1005A000031393008316140C031CD32A831213081D
:1005B0008316031761088312031393008316140C28
:1005C000031CDF2A831213088316031760088312A3
:1005D000031393008316140C031CEB2A8612831258
:1005E00086168A150A12B72A831603175E08E200D8
:1005F0005D08E1005B085C04E00083120313A016B1
:100600002008831687000430F700F70B052B8312B0
:10061000A0152008831687000330F700F70B0E2B78
:1006200083128712A0122008831687000430F70077
:10063000F70B182B83128711A0112008831687004F
:1006400003175A08FE39E300E6008312031334202F
:10065000780883160317DF00DF08031D442B6008AA
:10066000E600831203133420831603176208E600A2
:10067000831203133420831603176108E6008312E4
:10068000031334208316031783120313A0122008C8
:100690008316870000008312A015200883168700A8
:1006A0008312871D512B0430F700F70B552B582B65
:1006B0000000A0162008831687000430F700F70B0F
:1006C0005F2B03175F08F800031383128A150A12C1
:1006D000C82A831603175E08E1005D08E0005A0887
:1006E0005C04DF000313861283128612130883163C
:1006F00003175F088312031393008316140C031C63
:100700007E2B8312130883160317610883120313C9
:1007100093008316140C031C8A2B83121308831670
:10072000031760088312031393008316140C031C31
:10073000962B8612831286168A150A12DA2A8316D7
:1007400003175E08E2005D08E1005B085C04E0005E
:1007500083120313A0162008831687000430F700C5
:10076000F70BB02B8312A0152008831687000330E7
:10077000F700F70BB92B83128712A01220088316FB
:1007800087000430F700F70BC32B83128711A011E9
:1007900020088316870003175A08FE39E300E60095
:1007A000831203133420780883160317DF00DF0851
:1007B000031DEF2B6008E600831203133420831619
:1007C00003176208E600831203133420831603170D
:1007D0006108E60083120313342083160317831283
:1007E0000313A01220088316870000008312A015AF
:1007F0002008831687008312871DFC2B0430F70026
:10080000F70B002C032C0000A0162008831687008D
:100810000430F700F70B0A2C03175F08F8000313E6
:1008200083128A150A12EB2AA01620088316870065
:100830000430F700F70B1A2C8312A015200883163A
:1008400087000330F700F70B232C83128712A012C6
:100850002008831687000430F700F70B2D2C831235
:100860008711A01120088316870003175A08FE3944
:10087000DE00E60083120313342078088316031782
:10088000DD00DD08031D522C5B08E6008312031314
:100890003420831603175C08E60083120313342008
:1008A0008316031783120313A012200883168700F0
:1008B00000008312A0152008831687008312871D6D
:1008C0005F2C0430F700F70B632C662C0000A01699
:1008D0002008831687000430F700F70B6D2C0317F0
:1008E0005D08F800031383128A150A12FA2AA0166B
:1008F0002008831687000430F700F70B7D2C831245
:10090000A0152008831687000330F700F70B862C0C
:1009100083128712A0122008831687000430F70084
:10092000F70B902C83128711A011200883168700E3
:1009300003175A08FE39DE00E60083120313342041
:10094000780883160317DD00DD08031DB52C5B084E
:10095000E600831203133420831603175C08E600B5
:100960008312031334208316031783120313A01278
:1009700020088316870000008312A0152008831624
:1009800087008312871DC22C0430F700F70BC62C9A
:10099000C92C0000A0162008831687000430F70039
:1009A000F70BD02C03175D08F800031383128A1588
:1009B0000A12092BA0162008831687000430F700BE
:1009C000F70BE02C8312A015200883168700033054
:1009D000F700F70BE92C83128712A0122008831668
:1009E00087000430F700F70BF32C83128711A01156
:1009F00020088316870003175A08FE39DE00E60038
:100A0000831203133420780883160317DD00DD08F2
:100A1000031D182D5B08E600831203133420831690
:100A200003175C08E60083120313342083160317B0
:100A300083120313A012200883168700000083127C
:100A4000A0152008831687008312871D252D0430EA
:100A5000F700F70B292D2C2D0000A0162008831677
:100A600087000430F700F70B332D03175D08F800FB
:0A0A7000031383128A150A12182BD3
:10100000840183131F308305FF30A000F230A40059
:101010001230A3000330A2007130A100A801A70183
:10102000A601A501AC01AB01AA01A901A030B00045
:101030001A30AF000330AE007530AD00B401B3011B
:10104000B201B1010130B800B7012030B6006A30FA
:10105000B500BC01BB01BA01B901C001BF0120301C
:10106000BE006430BD00C401C301C201C1019C3097
:10107000C800C7012030C6006F30C500CC01CB01CD
:10108000CA01C901D001CF012030CE006430CD00AB
:10109000D401D301D201D101D801D7015830D600F3
:1010A0008330D5003130DC000830DB002C30DA0032
:1010B0009830D9006F30E0001230DF000330DE00DE
:1010C0007530DD00E401E301E201E101A030FE0042
:1010D0001A30FD000330FC007430FB0034308316FE
:1010E00003179300C4309200513091006F3090008C
:1010F0009A309700D93096004C30950079309400A2
:10110000A2309B00DA309A00273099006A309800AC
:1011100069309F00DA309E0056309D0064309C009C
:101120000830A300A2012030A1007330A0000830D5
:10113000A700A6012030A5006F30A4000830AB0046
:10114000AA012030A9007330A800AF01AE01AD01A3
:101150007B30AC004030B3000330B2002030B1002F
:101160007030B0000A30B700D730B6002330B50079
:101170007930B400CD30BB00CC30BA004C30B9006F
:101180007930B800BF01BE01BD017E30BC00031341
:101190001F149F141F159F1107309C003030031738
:1011A000CA00CC00CB01CE00CF00D0018030D200ED
:1011B000D101A030D3004A08DA008A118312031348
:1011C00004288A15790883160317C1007808C0001F
:1011D0005308DA004A08DB00DC0183120313A0166F
:1011E0002008831687000430F700F70BF5288312D8
:1011F000A0152008831687000330F700F70BFE28A0
:1012000083128712A0122008831687000430F7008B
:10121000F70B082983128711A01120088316870075
:1012200003175A08FE39E100E6008A1183120313FE
:1012300034208A15780883160317DC00DC08031DA8
:1012400077295B08E6008A118312031334208A157C
:10125000780883160317DC0083120313A0162008F6
:10126000831687000430F700F70B34298312A0158A
:101270002008831687000330F700F70B3D298312FF
:10128000871D40298712A01220088316870004308A
:10129000F700F70B492983128711A0112008831644
:1012A000870003175A080138E100E6008A1183120B
:1012B000031334208A15780883160317DC00DC0832
:1012C000031D7729F7018A118312031392208A15CF
:1012D000780883160317DE000130F7008A118312A5
:1012E000031392208A15780883160317DD008312F2
:1012F0000313A01220088316870000008312A01594
:101300002008831687008312871D84290430F70084
:10131000F70B88298B290000A01620088316870068
:101320000430F700F70B92290317E00CDF0CDE0CFA
:10133000DD0CE00CDF0CDE0CDD0CE00CDF0CDE0C59
:10134000DD0CE00CDF0CDE0CDD0C0F30E0055E0880
:10135000C1005D08C0005C08F8007808D4004A08A5
:10136000DA008A118312031308298A157A08831672
:101370000317C9007908C8007808C7007708C600B5
:101380004C08DB004B08DA008A118312031386290C
:101390008A157A0883160317C9007908C8007808E7
:1013A000C7007708C6005308DA004A08DB00DC01F2
:1013B00083120313A0162008831687000430F70059
:1013C000F70BE0298312A01520088316870003304D
:1013D000F700F70BE92983128712A0122008831661
:1013E00087000430F700F70BF32983128711A0114F
:1013F00020088316870003175A08FE39E100E6002B
:101400008A118312031334208A1578088316031770
:10141000DC00DC08031D622A5B08E6008A118312E7
:10142000031334208A15780883160317DC0083120F
:101430000313A0162008831687000430F700F70B6B
:101440001F2A8312A0152008831687000330F70097
:10145000F70B282A8312871D2B2A8712A012200837
:10146000831687000430F700F70B342A83128711A4
:10147000A01120088316870003175A080138E100DD
:10148000E6008A118312031334208A157808831624
:101490000317DC00DC08031D622AF7018A1183129E
:1014A000031392208A15780883160317DE00013093
:1014B000F7008A118312031392208A157808831685
:1014C0000317DD0083120313A01220088316870080
:1014D00000008312A0152008831687008312871D41
:1014E0006F2A0430F700F70B732A762A0000A01643
:1014F0002008831687000430F700F70B7D2A0317B6
:101500006008C5005F08C4005E08C3005D08C20033
:101510005C08F8007808D4004A08DA008A118312BF
:1015200003130D2A8A157A0883160317C900790850
:10153000C8007808C7007708C6004F08DA005208CC
:10154000DC005108DB008A11831203138B2A8A15F1
:1015500083160317DB014F08DA005008DC0052083D
:10156000DE005108DD008A1183120313BE2A8A159A
:10157000831603175308DA004F08DB005008DC001D
:101580005208DE005108DD008A1183120313F42A89
:101590008A15780883160317D400DB014F08DA0098
:1015A0005008DC005208DE005108DD008A11831269
:1015B0000313692B8A15831603175308DA004F08A3
:1015C000DB005008DC005208DE005108DD008A1103
:1015D000831203139F2B8A15780883160317D400F0
:1015E0005308DA004E08DB004D08DC008A11831234
:1015F0000313142C8A15780883160317D400530894
:10160000DA004E08DB004D08DC008A118312031358
:10161000772C8A15780883160317D4005308DA004C
:101620004E08DB004D08DC008A1183120313DA2C0C
:0C1630008A15780883160317D4006300A5
:02400E00333F3E
:00000001FF
;PIC16F877A
;CRC=2DB1  CREATED="29-Oct-12 17:36"
